:100000000C942A000C94AD0E0C94E00E0C94130F7B
:100010000C9447000C9447000C9447000C94470044
:100020000C9447000C9447000C9447000C94470034
:100030000C9447000C9447000C9447000C94470024
:100040000C9447000C9447000C9447000C94470014
:100050000C94470011241FBECFE5D8E0DEBFCDBF12
:1000600010E0A0E6B0E0E6E5F4E302C005900D92F2
:10007000A83FB107D9F711E0A8EFB0E001C01D9289
:10008000A232B107E1F70E94AE120C94291A0C9427
:100090000000EF92FF920F931F937B018C0120E0F1
:1000A00030E040E05FE40E94490388238CF0C801FF
:1000B000B70120E030E040E05FE40E94C1010E940F
:1000C000A9039B01AC01205030404040504806C07D
:1000D000C801B7010E94A9039B01AC01B901CA0183
:1000E0001F910F91FF90EF900895A0E0B0E0EBE733
:1000F000F0E00C94F219DC012B01FA019C91923092
:1001000008F439C1EB018881823008F433C194309E
:1001100069F4843009F02FC111969C91119789815F
:10012000981709F428C1A8EDB0E025C1843009F47E
:1001300021C18230A9F4923009F01DC19A01AD01AC
:1001400088E0EA010990AE01E90109929E0181501F
:10015000C1F7E201898111969C918923818308C1AD
:10016000923009F407C112962D903C901397EB0141
:100170008A819B811496AD90BD90CD90DC901797AD
:10018000EC80FD800E811F819101281B390BB90184
:1001900037FF04C066277727621B730B6032710537
:1001A0000CF061C0121613066CF537014801062EDB
:1001B00004C096948794779467940A94D2F721E0C8
:1001C00030E040E050E004C0220F331F441F551FB1
:1001D0006A95D2F721503040404050402E213F21B7
:1001E00040235123211531054105510521F021E01E
:1001F00030E040E050E079018A01E628F72808293C
:1002000019293CC0232BD1F1260E371E350146019A
:10021000062E04C096948794779467940A94D2F734
:1002200021E030E040E050E004C0220F331F441FC3
:10023000551F6A95D2F721503040404050402A2146
:100240003B214C215D21211531054105510521F04E
:1002500021E030E040E050E059016A01A628B728CB
:10026000C828D9280BC0821593052CF01C01AA249C
:10027000BB24650103C0EE24FF24870111969C91E5
:10028000D20111968C91981709F445C0992339F041
:10029000A80197012A193B094C095D0906C0A6016E
:1002A00095012E193F09400B510B57FD08C01182D3
:1002B0003382228224833583468357831DC081E0A5
:1002C00081833382228288279927DC01821B930B4A
:1002D000A40BB50B84839583A683B7830DC0220F2F
:1002E000331F441F551F24833583468357838281E0
:1002F000938101979383828324813581468157813D
:10030000DA01C9010197A109B1098F5F9F4FAF4F72
:10031000BF4328F30BC0918333822282EA0CFB1C7B
:100320000C1D1D1DE482F5820683178383E0808304
:10033000248135814681578157FF1AC0C901AA27F8
:1003400097FDA095BA2F81709070A070B0705695EF
:10035000479537952795822B932BA42BB52B848318
:100360009583A683B7838281938101969383828349
:10037000DF0101C0D201CD01CDB7DEB7E2E10C94BF
:100380000E1AA0E2B0E0E7ECF1E00C94FE196983EC
:100390007A838B839C832D833E834F835887E9E048
:1003A000EE2EF12CEC0EFD1ECE010196B7010E943F
:1003B000D2048E010F5E1F4FCE010596B8010E9438
:1003C000D2048A8991E089278A8BC701B801AE01DE
:1003D000475E5F4F0E9475000E94FD03A096E6E015
:1003E0000C941A1AA0E2B0E0E8EFF1E00C94FE19C8
:1003F00069837A838B839C832D833E834F835887C5
:10040000F9E0EF2EF12CEC0EFD1ECE010196B701A6
:100410000E94D2048E010F5E1F4FCE010596B801D7
:100420000E94D204C701B801AE01475E5F4F0E942F
:1004300075000E94FD03A096E6E00C941A1AA0E253
:10044000B0E0E5E2F2E00C94F21969837A838B83E1
:100450009C832D833E834F835887CE010196BE0136
:10046000675F7F4F0E94D204CE010596BE016F5E8A
:100470007F4F0E94D2049985923088F0898982301A
:10048000C8F0943019F4823051F404C0843029F457
:10049000923081F488ED90E0C6C0923049F420E0BB
:1004A0009A858A89981321E02A87CE010996BBC0D4
:1004B000823049F420E09A858A89981321E02A8BBA
:1004C000CE014196B0C02D843E844F8458886D88FB
:1004D0007E888F88988CEE24FF248701AA24BB2471
:1004E000650140E050E060E070E0E0E0F0E0C10174
:1004F00081709070892BE9F0E60CF71C081D191D1E
:100500009A01AB012A0D3B1D4C1D5D1D80E090E062
:10051000A0E0B0E0E614F7040805190520F481E036
:1005200090E0A0E0B0E0BA01A901480F591F6A1F8E
:100530007B1FAA0CBB1CCC1CDD1C97FE08C081E0F5
:1005400090E0A0E0B0E0A82AB92ACA2ADB2A3196B6
:10055000E032F10549F0660C771C881C991C569412
:10056000479437942794C3CFFA85EA892B893C892D
:100570008B859C85280F391F2E5F3F4F17C0CA01FE
:1005800081709070892B61F016950795F794E79428
:1005900080E090E0A0E0B0E8E82AF92A0A2B1B2BC3
:1005A00076956795579547952F5F3F4F77FDE7CF36
:1005B0000CC0440F551F661F771F17FD4160EE0CDE
:1005C000FF1C001F111F21503040403090E05907A0
:1005D00090E0690790E4790760F32B8F3C8FDB0193
:1005E000CA018F779070A070B07080349105A1051A
:1005F000B10561F447FD0AC0E114F10401051105DC
:1006000029F0405C5F4F6F4F7F4F40781A8EFE1786
:1006100011F081E08A8F4D8F5E8F6F8F78A383E01A
:10062000898FCE0149960E94FD03A096E2E10C94C9
:100630000E1AA8E1B0E0EFE1F3E00C94FE19698333
:100640007A838B839C832D833E834F83588789E0F5
:10065000E82EF12CEC0EFD1ECE010196B7010E9492
:10066000D2048E010F5E1F4FCE010596B8010E9485
:10067000D2048985823040F08989823028F0C70110
:10068000B8010E944A0501C08FEF6896E6E00C941D
:100690001A1AA8E1B0E0EFE4F3E00C94FE196983C4
:1006A0007A838B839C832D833E834F83588789E095
:1006B000E82EF12CEC0EFD1ECE010196B7010E9432
:1006C000D2048E010F5E1F4FCE010596B8010E9425
:1006D000D2048985823040F08989823028F0C701B0
:1006E000B8010E944A0501C08FEF6896E6E00C94BD
:1006F0001A1AA8E1B0E0EFE7F3E00C94FE19698361
:100700007A838B839C832D833E834F83588789E034
:10071000E82EF12CEC0EFD1ECE010196B7010E94D1
:10072000D2048E010F5E1F4FCE010596B8010E94C4
:10073000D2048985823040F08989823028F0C7014F
:10074000B8010E944A0501C081E06896E6E00C9479
:100750001A1AACE0B0E0EFEAF3E00C94021A6983F5
:100760007A838B839C83CE010196BE016B5F7F4FA2
:100770000E94D2048D81823061F1823050F1843048
:1007800021F48E81882351F12EC02F81388537FDC9
:1007900020C06E812F3131051CF06623F9F023C093
:1007A0008EE190E0821B930B29853A854B855C8511
:1007B00004C056954795379527958A95D2F76623B5
:1007C000B1F050954095309521953F4F4F4F5F4F79
:1007D0000EC020E030E040E050E009C02FEF3FEFD6
:1007E0004FEF5FE704C020E030E040E050E8B9019F
:1007F000CA012C96E2E00C941E1ADF92EF92FF924F
:100800000F931F93FC01E480F58006811781D1804E
:100810008081823048F480E090E0A0E1B0E0E82AF6
:10082000F92A0A2B1B2BA5C0843009F49FC0823003
:1008300021F4EE24FF24870105C0E114F104010531
:10084000110519F4E0E0F0E096C0628173819FEF3A
:10085000623879070CF05BC022E83FEF261B370BAC
:100860002A3131052CF020E030E040E050E02AC091
:10087000B801A701022E04C0769567955795479554
:100880000A94D2F781E090E0A0E0B0E004C0880FC5
:10089000991FAA1FBB1F2A95D2F70197A109B10979
:1008A0008E219F21A023B1230097A105B10521F03E
:1008B00081E090E0A0E0B0E09A01AB01282B392B59
:1008C0004A2B5B2BDA01C9018F779070A070B07052
:1008D00080349105A105B10539F427FF09C0205CDA
:1008E0003F4F4F4F5F4F04C0215C3F4F4F4F5F4F13
:1008F000E0E0F0E02030A0E03A07A0E04A07A0E402
:100900005A0710F0E1E0F0E079018A0127C0603871
:10091000710564F5FB01E158FF4FD801C7018F77DE
:100920009070A070B07080349105A105B10539F4C4
:10093000E7FE0DC080E490E0A0E0B0E004C08FE3EB
:1009400090E0A0E0B0E0E80EF91E0A1F1B1F17FFA1
:1009500005C016950795F794E794319687E01695AC
:100960000795F794E7948A95D1F705C0EE24FF2404
:100970008701EFEFF0E06E2F679566276795902F60
:100980009F77D794DD24D7948E2F8695492F462BB9
:10099000582F5D29B701CA011F910F91FF90EF9069
:1009A000DF900895FC01DB01408151812281622F9B
:1009B0006F7770E0221F2227221F9381892F880FD3
:1009C000822B282F30E0991F9927991F11969C930D
:1009D000119721153105A9F54115510561057105DD
:1009E00011F482E037C082E89FEF13969C938E93B8
:1009F00012979A01AB0167E0220F331F441F551F66
:100A00006A95D1F783E08C930DC0220F331F441FEA
:100A1000551F12968D919C911397019713969C9355
:100A20008E931297203080E0380780E0480780E4FA
:100A3000580758F314962D933D934D935C93179755
:100A400008952F3F310579F4411551056105710570
:100A500019F484E08C93089564FF03C081E08C93C3
:100A600012C01C9210C02F57304013963C932E9307
:100A7000129783E08C9387E0440F551F661F771F02
:100A80008A95D1F7706414964D935D936D937C9322
:100A9000179708951F93DC01FB019C91923008F495
:100AA00047C08081823008F443C0943051F41196DD
:100AB0001C91843099F58181682F70E0611B710968
:100AC0003FC0843021F0923031F48230B9F181811D
:100AD000882389F12DC011961C9111978230F1F075
:100AE00081811817D9F412962D913C911397828128
:100AF00093818217930794F028173907BCF0149656
:100B00008D919D910D90BC91A02D248135814681C0
:100B10005781281739074A075B0718F4112341F05A
:100B20000AC082179307A407B50740F4112319F0F0
:100B300061E070E005C06FEF7FEF02C060E070E041
:100B4000CB011F910895DF93CF93CDB7DEB7A7E216
:100B5000B0E0E7E2F0E0808180648C93A7E2B0E04F
:100B6000E7E2F0E080818F778C93A7E2B0E0E7E2E4
:100B7000F0E0808180628C93A6E2B0E0E6E2F0E0F3
:100B800080818F7D8C93A6E2B0E0E6E2F0E0808188
:100B9000877F8C93A6E2B0E0E6E2F0E08081887F78
:100BA0008C93A6E2B0E0E6E2F0E0808187608C936F
:100BB000A6E2B0E0E6E2F0E0808180688C93CF911D
:100BC000DF910895DF93CF930F92CDB7DEB789837E
:100BD000A7E2B0E0E7E2F0E08081807E8C93A7E2BC
:100BE000B0E0E7E2F0E090818981892B8C93A6E266
:100BF000B0E0E6E2F0E0808180648C93E6E2F0E031
:100C0000808182958F70882F90E08170907000971E
:100C1000A9F3A6E2B0E0E6E2F0E0808180618C9387
:100C2000E5E2F0E08081882F90E00F90CF91DF9196
:100C30000895DF93CF93CDB7DEB72E970FB6F89414
:100C4000DEBF0FBECDBF80E062E041E00E94DC0964
:100C500080E090E0A0E0B0E48B879C87AD87BE8702
:100C60006B857C858D859E8520E030E04AE755E4E4
:100C70000E941F02DC01CB018F839887A987BA8766
:100C80006F81788589859A8520E030E040E85FE3D0
:100C90000E94790388232CF481E090E09E838D8369
:100CA0003FC06F81788589859A8520E03FEF4FE7C7
:100CB00057E40E94190318164CF56B857C858D85C9
:100CC0009E8520E030E040E251E40E941F02DC01FA
:100CD000CB01BC01CD010E944900DC01CB019E8308
:100CE0008D830FC080E991E09C838B838B819C81F5
:100CF0000197F1F79C838B838D819E8101979E8361
:100D00008D838D819E81009769F714C06F817885EE
:100D100089859A850E944900DC01CB019E838D83E1
:100D20008D819E819A83898389819A810197F1F7C8
:100D30009A83898380E062E040E00E94DC092E967D
:100D40000FB6F894DEBF0FBECDBFCF91DF910895EF
:100D5000DF93CF930F92CDB7DEB789838981982F28
:100D6000917080E063E0492F0E94DC0989818695BB
:100D7000982F917080E064E0492F0E94DC098981FE
:100D800086958695982F917080E065E0492F0E94A6
:100D9000DC098981869586958695982F917080E0EB
:100DA00066E0492F0E94DC090F90CF91DF910895F2
:100DB000DF93CF930F92CDB7DEB7898380E061E0F8
:100DC00040E00E94DC09898182958F700E94A8060C
:100DD0000E94190689810E94A8060E9419060F9098
:100DE000CF91DF910895DF93CF930F92CDB7DEB708
:100DF000898380E061E041E00E94DC09898182957D
:100E00008F700E94A8060E94190689810E94A80678
:100E10000E9419060F90CF91DF910895DF93CF9331
:100E2000CDB7DEB72E970FB6F894DEBF0FBECDBF9D
:100E300080E090E0A0E2B2E48B879C87AD87BE871C
:100E40006B857C858D859E8520E030E04AE755E402
:100E50000E941F02DC01CB018F839887A987BA8784
:100E60006F81788589859A8520E030E040E85FE3EE
:100E70000E94790388232CF481E090E09E838D8387
:100E80003FC06F81788589859A8520E03FEF4FE7E5
:100E900057E40E94190318164CF56B857C858D85E7
:100EA0009E8520E030E040E251E40E941F02DC0118
:100EB000CB01BC01CD010E944900DC01CB019E8326
:100EC0008D830FC080E991E09C838B838B819C8113
:100ED0000197F1F79C838B838D819E8101979E837F
:100EE0008D838D819E81009769F714C06F8178850D
:100EF00089859A850E944900DC01CB019E838D8300
:100F00008D819E819A83898389819A810197F1F7E6
:100F10009A83898382E00E94A8060E94190682E0D3
:100F20000E94A8060E94190688E00E94A8060E9456
:100F300019068CE00E94D80681E00E94D8062E9601
:100F40000FB6F894DEBF0FBECDBFCF91DF910895ED
:100F5000DF93CF9300D000D0CDB7DEB79C838B83D7
:100F60001A828B819C810097E1F019820EC08981E1
:100F7000282F30E08B819C81FC01E20FF31F8081E0
:100F80000E94F30689818F5F89838981282F30E051
:100F90008B819C81FC01E20FF31F8081882339F74C
:100FA00002C082E08A838A810F900F900F900F9089
:100FB000CF91DF910895DF93CF93CDB7DEB76197DF
:100FC0000FB6F894DEBF0FBECDBF6E877F87888BCC
:100FD000998B1A828E859F85A889B9890097A1056A
:100FE000B10521F480E30E94F30669C08E859F85D8
:100FF000A889B989BB230CF043C08DE20E94F30697
:101000008E859F85A889B989B095A0959095819581
:101010009F4FAF4FBF4F8E879F87A88BB98B30C034
:101020008E859F85A889B9892AE030E040E050E0AC
:10103000BC01CD010E94B519DC01CB018B838E85EB
:101040009F85A889B9892AE030E040E050E0BC01E2
:10105000CD010E94B519DA01C9018E879F87A88B3F
:10106000B98B8A81282F30E08B81482F405DCE01DB
:101070000496FC01E20FF31F40838A818F5F8A830D
:101080008E859F85A889B9890097A105B10541F68C
:101090008A818150898310C08981282F332727FDB9
:1010A0003095CE010496FC01E20FF31F80810E946F
:1010B000F306898181508983898188236CF7619641
:1010C0000FB6F894DEBF0FBECDBFCF91DF9108956C
:1010D000DF93CF9300D00F92CDB7DEB78A836B83B7
:1010E0008B81882319F48A81898306C08B818130A2
:1010F00019F48A81805C89838981806889838981E8
:101100000E94D8060F900F900F90CF91DF91089515
:10111000DF93CF93CDB7DEB727970FB6F894DEBF36
:101120000FBECDBF9C838B836D834E832F838D81B8
:10113000882F90E0880F991F880F991F880F991F9B
:101140008A838A8180648A838A810E94D806198270
:101150000EC08981282F30E08B819C81FC01E20F39
:10116000F31F80810E94F30689818F5F89838981C3
:10117000883078F38E816F810E9468088D810E948B
:10118000F30627960FB6F894DEBF0FBECDBFCF9102
:10119000DF910895DF93CF93CDB7DEB728970FB6D1
:1011A000F894DEBF0FBECDBF8A836B834C83198258
:1011B0008B81883008F0F4C08C81882309F077C0D7
:1011C0008A81282F30E038872F838F81988581305E
:1011D000910559F12F813885223031052CF48F810A
:1011E0009885009769F060C02F81388522303105DD
:1011F00089F18F8198858330910509F440C054C0EE
:10120000AAE3B0E0EAE3F0E08081482F8B81282F49
:1012100030E081E090E0022E02C0880F991F0A940E
:10122000E2F7809584238C93BDC0A7E3B0E0E7E3A9
:10123000F0E08081482F8B81282F30E081E090E022
:10124000022E02C0880F991F0A94E2F7809584232A
:101250008C93A8C0A4E3B0E0E4E3F0E08081482FE1
:101260008B81282F30E081E090E0022E02C0880FB1
:10127000991F0A94E2F7809584238C9393C0A1E38D
:10128000B0E0E1E3F0E08081482F8B81282F30E04F
:1012900081E090E0022E02C0880F991F0A94E2F7C5
:1012A000809584238C937EC081E089837BC08C8170
:1012B000813009F072C08A81282F30E03E832D836F
:1012C0008D819E818130910549F12D813E812230B1
:1012D00031052CF48D819E81009761F05BC02D81DA
:1012E0003E812230310571F18D819E8183309105DF
:1012F000E9F150C0AAE3B0E0EAE3F0E08081482FD2
:101300008B81282F30E081E090E0022E02C0880F10
:10131000991F0A94E2F7842B8C9344C0A7E3B0E0B2
:10132000E7E3F0E08081482F8B81282F30E081E0D7
:1013300090E0022E02C0880F991F0A94E2F7842BD6
:101340008C9330C0A4E3B0E0E4E3F0E08081482F68
:101350008B81282F30E081E090E0022E02C0880FC0
:10136000991F0A94E2F7842B8C931CC0A1E3B0E090
:10137000E1E3F0E08081482F8B81282F30E081E08D
:1013800090E0022E02C0880F991F0A94E2F7842B86
:101390008C9308C081E0898305C081E0898302C005
:1013A00081E08983898128960FB6F894DEBF0FBE4D
:1013B000CDBFCF91DF910895DF93CF93CDB7DEB747
:1013C00028970FB6F894DEBF0FBECDBF8A836B831C
:1013D0004C8319828B81883008F0F4C08C8188237B
:1013E00009F077C08A81282F30E038872F838F81DA
:1013F00098858130910559F12F813885223031054A
:101400002CF48F819885009769F060C02F81388512
:101410002230310589F18F8198858330910509F457
:1014200040C054C0ABE3B0E0EBE3F0E08081482F74
:101430008B81282F30E081E090E0022E02C0880FDF
:10144000991F0A94E2F7809584238C93BDC0A8E38A
:10145000B0E0E8E3F0E08081482F8B81282F30E076
:1014600081E090E0022E02C0880F991F0A94E2F7F3
:10147000809584238C93A8C0A5E3B0E0E5E3F0E079
:101480008081482F8B81282F30E081E090E0022E70
:1014900002C0880F991F0A94E2F7809584238C93E9
:1014A00093C0A2E3B0E0E2E3F0E08081482F8B81BB
:1014B000282F30E081E090E0022E02C0880F991FB3
:1014C0000A94E2F7809584238C937EC081E089831F
:1014D0007BC08C81813009F072C08A81282F30E076
:1014E0003E832D838D819E818130910549F12D812F
:1014F0003E81223031052CF48D819E81009761F070
:101500005BC02D813E812230310571F18D819E813C
:1015100083309105E9F150C0ABE3B0E0EBE3F0E0DC
:101520008081482F8B81282F30E081E090E0022ECF
:1015300002C0880F991F0A94E2F7842B8C9344C051
:10154000A8E3B0E0E8E3F0E08081482F8B81282F0A
:1015500030E081E090E0022E02C0880F991F0A94CB
:10156000E2F7842B8C9330C0A5E3B0E0E5E3F0E034
:101570008081482F8B81282F30E081E090E0022E7F
:1015800002C0880F991F0A94E2F7842B8C931CC029
:10159000A2E3B0E0E2E3F0E08081482F8B81282FC6
:1015A00030E081E090E0022E02C0880F991F0A947B
:1015B000E2F7842B8C9308C081E0898305C081E029
:1015C000898302C081E08983898128960FB6F894C7
:1015D000DEBF0FBECDBFCF91DF910895DF93CF93D4
:1015E000CDB7DEB727970FB6F894DEBF0FBECDBFDD
:1015F0008A836B835D834C8319828C819D810097E4
:1016000009F47BC08B81883008F074C08A81282F50
:1016100030E03F832E834E815F814130510559F187
:101620008E819F818230910534F42E813F81211576
:10163000310569F05CC04E815F814230510579F11E
:101640008E819F818330910509F43DC050C0E9E34C
:10165000F0E08081282F30E08B81882F90E0A90175
:1016600002C0559547958A95E2F7CA018170EC81D1
:10167000FD81808344C0E6E3F0E08081282F30E0E4
:101680008B81882F90E0A90102C0559547958A95D6
:10169000E2F7CA018170EC81FD81808330C0E3E311
:1016A000F0E08081282F30E08B81882F90E0A90125
:1016B00002C0559547958A95E2F7CA018170EC8181
:1016C000FD8180831CC0E0E3F0E08081282F30E0C2
:1016D0008B81882F90E0A90102C0559547958A9586
:1016E000E2F7CA018170EC81FD81808308C081E04E
:1016F000898305C081E0898302C082E08983898172
:1017000027960FB6F894DEBF0FBECDBFCF91DF9105
:101710000895DF93CF9300D000D00F92CDB7DEB7FE
:101720008A836B8319828A81282F30E03D832C8342
:101730008C819D8181309105D1F02C813D812230B9
:1017400031052CF48C819D81009761F01FC02C81A4
:101750003D812230310581F08C819D81833091055E
:1017600081F014C0EAE3F0E08B81808311C0E7E3ED
:10177000F0E08B8180830CC0E4E3F0E08B81808318
:1017800007C0E1E3F0E08B81808302C081E08983C0
:1017900089810F900F900F900F900F90CF91DF9154
:1017A0000895DF93CF9300D000D00F92CDB7DEB76E
:1017B0008A836B8319828A81282F30E03D832C83B2
:1017C0008C819D8181309105D1F02C813D81223029
:1017D00031052CF48C819D81009761F01FC02C8114
:1017E0003D812230310581F08C819D8183309105CE
:1017F00081F014C0EBE3F0E08B81808311C0E8E35B
:10180000F0E08B8180830CC0E5E3F0E08B81808386
:1018100007C0E2E3F0E08B81808302C081E089832E
:1018200089810F900F900F900F900F90CF91DF91C3
:101830000895DF93CF9300D000D00F92CDB7DEB7DD
:101840008A836B8319828B81883008F072C08A8109
:10185000282F30E03D832C838C819D818130910540
:1018600049F12C813D81223031052CF48C819D8100
:10187000009761F05BC02C813D812230310571F110
:101880008C819D8183309105E9F150C0ABE3B0E0DC
:10189000EBE3F0E08081482F8B81282F30E081E05E
:1018A00090E0022E02C0880F991F0A94E2F7842765
:1018B0008C9341C0A8E3B0E0E8E3F0E08081482FDA
:1018C0008B81282F30E081E090E0022E02C0880F4B
:1018D000991F0A94E2F784278C932DC0A5E3B0E00A
:1018E000E5E3F0E08081482F8B81282F30E081E014
:1018F00090E0022E02C0880F991F0A94E2F7842715
:101900008C9319C0A2E3B0E0E2E3F0E08081482FBD
:101910008B81282F30E081E090E0022E02C0880FFA
:10192000991F0A94E2F784278C9305C081E089838C
:1019300002C081E0898389810F900F900F900F90F2
:101940000F90CF91DF910895DF93CF93CDB7DEB79E
:10195000A5E5B0E0E5E5F0E080818E7F8C93A5E51C
:10196000B0E0E5E5F0E0808182608C93ABE5B0E02B
:10197000EBE5F0E0808180648C93CF91DF91089556
:10198000DF93CF93CDB7DEB7A5E5B0E0E5E5F0E0B6
:10199000808184608C93A5E5B0E0E5E5F0E080818E
:1019A00088608C93ABE5B0E0EBE5F0E08081806887
:1019B0008C93CF91DF910895DF93CF93CDB7DEB7AE
:1019C000A5E5B0E0E5E5F0E0808180648C93ABE5CF
:1019D000B0E0EBE5F0E0808180628C93CF91DF9105
:1019E0000895DF93CF93CDB7DEB72B970FB6F8945A
:1019F000DEBF0FBECDBF8A836B8319828A81282FF9
:101A000030E03B872A878A859B858130910509F4E0
:101A10006AC02A853B852230310509F4C0C08A8519
:101A20009B85009709F0E8C08B81282F30E039872B
:101A30002887888599858230910529F128853985FF
:101A40002330310534F4888599858130910561F022
:101A500047C0288539852330310599F188859985D6
:101A600084309105F9F03CC0A5E5B0E0E5E5F0E093
:101A700080818E7F8C93A5E5B0E0E5E5F0E0808184
:101A80008E7F8C93BBC0A5E5B0E0E5E5F0E08081FA
:101A900081608C93A5E5B0E0E5E5F0E080818E7F84
:101AA0008C93ACC0A5E5B0E0E5E5F0E080818E7FE9
:101AB0008C93A5E5B0E0E5E5F0E0808181608C9352
:101AC0009DC0A5E5B0E0E5E5F0E0808181608C9304
:101AD000A5E5B0E0E5E5F0E0808181608C938EC003
:101AE00081E089838BC08B81282F30E03F832E8358
:101AF0008E819F818230910529F12E813F81233093
:101B0000310534F48E819F818130910561F076C07A
:101B10002E813F812330310599F18E819F81843060
:101B20009105F9F06BC0A5E5B0E0E5E5F0E0808156
:101B30008B7F8C93A5E5B0E0E5E5F0E08081877FC1
:101B40008C935CC0A5E5B0E0E5E5F0E080818460C1
:101B50008C93A5E5B0E0E5E5F0E08081877F8C938C
:101B60004DC0A5E5B0E0E5E5F0E080818B7F8C938A
:101B7000A5E5B0E0E5E5F0E0808188608C933EC0AB
:101B8000A5E5B0E0E5E5F0E0808184608C93A5E513
:101B9000B0E0E5E5F0E0808188608C932FC08B8118
:101BA000282F30E03D832C838C819D8181309105ED
:101BB000A1F02C813D812430310501F5A5E5B0E08F
:101BC000E5E5F0E080818F7B8C93A5E5B0E0E5E56D
:101BD000F0E0808180648C9311C0A5E5B0E0E5E57C
:101BE000F0E0808180648C93A5E5B0E0E5E5F0E06D
:101BF000808180648C9302C081E0898389812B96E7
:101C00000FB6F894DEBF0FBECDBFCF91DF91089520
:101C1000DF93CF93CDB7DEB729970FB6F894DEBF29
:101C20000FBECDBF8A836B8319828A81882301F519
:101C30008B81282F30E039872887888599858130E6
:101C4000910571F0288539852230310509F056C09B
:101C5000ABE5B0E0EBE5F0E0808180648C934EC0B2
:101C6000ABE5B0E0EBE5F0E080818F7B8C9346C084
:101C70008A818130F9F48B81282F30E03F832E83D5
:101C80008E819F818130910569F02E813F812230C4
:101C90003105A1F5ABE5B0E0EBE5F0E080818068CF
:101CA0008C932CC0ABE5B0E0EBE5F0E080818F7762
:101CB0008C9324C08A818230F9F48B81282F30E004
:101CC0003D832C838C819D818130910569F02C812D
:101CD0003D812230310591F4ABE5B0E0EBE5F0E079
:101CE000808180628C930AC0ABE5B0E0EBE5F0E068
:101CF00080818F7D8C9302C081E0898389812996C0
:101D00000FB6F894DEBF0FBECDBFCF91DF9108951F
:101D1000DF93CF9300D000D0CDB7DEB78A837C832A
:101D20006B8319828B819C81009769F08A81882F4F
:101D300090E0880F991FFC01E850FF4F8B819C8138
:101D40009183808302C081E0898389810F900F9005
:101D50000F900F90CF91DF9108951F920F920FB6C1
:101D60000F9211242F933F934F935F936F937F9321
:101D70008F939F93AF93BF93EF93FF93DF93CF9393
:101D8000CDB7DEB78091F8009091F900009729F067
:101D9000E091F800F091F9000995CF91DF91FF9162
:101DA000EF91BF91AF919F918F917F916F915F91D3
:101DB0004F913F912F910F900FBE0F901F9018954C
:101DC0001F920F920FB60F9211242F933F934F93B0
:101DD0005F936F937F938F939F93AF93BF93EF9393
:101DE000FF93DF93CF93CDB7DEB78091FA00909148
:101DF000FB00009729F0E091FA00F091FB000995B3
:101E0000CF91DF91FF91EF91BF91AF919F918F9112
:101E10007F916F915F914F913F912F910F900FBEE6
:101E20000F901F9018951F920F920FB60F921124CA
:101E30002F933F934F935F936F937F938F939F93D2
:101E4000AF93BF93EF93FF93DF93CF93CDB7DEB7FD
:101E50008091FC009091FD00009729F0E091FC003A
:101E6000F091FD000995CF91DF91FF91EF91BF9126
:101E7000AF919F918F917F916F915F914F913F9122
:101E80002F910F900FBE0F901F901895DF93CF9357
:101E9000CDB7DEB77894CF91DF910895DF93CF93DC
:101EA000CDB7DEB7F894CF91DF910895DF93CF934C
:101EB00000D000D00F92CDB7DEB78FEF8B831982A1
:101EC0005EC08981882F90E0FC01EC50FF4F90812B
:101ED00083E0692F40E00E94DC091A823DC08A81BC
:101EE000882F90E0FC01E051FF4F90819E012C5F14
:101EF0003F4F81E0692FA9010E94EE0A8C8188235F
:101F000041F58A81482F50E08981282F30E0CA01AD
:101F1000880F991F880F991F820F931FFC01E052B1
:101F2000FF4F80818B830FC08A81882F90E0FC0156
:101F3000E051FF4F90819E012C5F3F4F81E0692F60
:101F4000A9010E94EE0A8C81882371F38B818D8315
:101F50001CC08A818F5F8A838A81843008F4BFCF56
:101F60008981882F90E0FC01EC50FF4F908183E045
:101F7000692F41E00E94DC0989818F5F8983898113
:101F8000843008F49ECF8B818D838D810F900F90CC
:101F90000F900F900F90CF91DF910895DF93CF9323
:101FA0000F92CDB7DEB789838981882F90E0A0E0BA
:101FB000B0E028E833E140E050E0BC01CD010E94F0
:101FC0008A19DC01CB01892F9A2FAB2FBB270F90E9
:101FD000CF91DF910895AF92BF92CF92DF92EF92AF
:101FE000FF920F931F93DF93CF93CDB7DEB7609728
:101FF0000FB6F894DEBF0FBECDBF69837A838B83A3
:102000009C832D833E834F835887E986FA860B870E
:102010001C87AD86BE86CF86D88A2D853E854F85A6
:10202000588989859A85AB85BC8579018A01E81A2A
:10203000F90A0A0B1B0B2D8D3E8D4F8D58A18981FE
:102040009A81AB81BC81281B390B4A0B5B0BC80101
:10205000B7010E948A197B018C012D813E814F813D
:10206000588589819A81AB81BC81281B390B4A0B29
:102070005B0BC801B7010E94B519DA01C9019C01C7
:10208000AD0189859A85AB85BC85820F931FA41FFE
:10209000B51FBC01CD0160960FB6F894DEBF0FBE30
:1020A000CDBFCF91DF911F910F91FF90EF90DF9007
:1020B000CF90BF90AF900895DF93CF93CDB7DEB7A9
:1020C000EAE3F0E08EE78083E7E3F0E089E08083F5
:1020D000E4E3F0E08FEF8083E1E3F0E08EE38083E0
:1020E000EBE3F0E01082E8E3F0E080EF8083E5E3EB
:1020F000F0E01082E2E3F0E08CE38083CF91DF91A7
:102100000895DF93CF93CDB7DEB7AFE4B0E0EFE44F
:10211000F0E0808180688C93AFE4B0E0EFE4F0E021
:1021200080818F7B8C93AFE4B0E0EFE4F0E08081BE
:102130008E7F8C93AFE4B0E0EFE4F0E080818260CA
:102140008C93AEE4B0E0EEE4F0E0808188608C93A4
:10215000AEE4B0E0EEE4F0E0808180618C93AEE428
:10216000B0E0EEE4F0E08081887F8C93AEE4B0E0F4
:10217000EEE4F0E0808182608C93E6E4F0E080E4BD
:102180009CE991838083CF91DF910895DF93CF9372
:1021900000D0CDB7DEB79A838983EAE4F0E0898185
:1021A0009A81918380830F900F90CF91DF91089552
:1021B000DF93CF9300D0CDB7DEB79A838983ECE469
:1021C000F0E089819A81918380830F900F90CF9165
:1021D000DF910895DF93CF93CDB7DEB7ECE4F0E065
:1021E00080819181CF91DF910895DF93CF93CDB717
:1021F000DEB7AFE4B0E0EFE4F0E080818E7F8C9357
:10220000AFE4B0E0EFE4F0E080818D7F8C93AEE44A
:10221000B0E0EEE4F0E08081877F8C93AEE4B0E044
:10222000EEE4F0E080818F7E8C93AEE4B0E0EEE4EB
:10223000F0E08081887F8C93AEE4B0E0EEE4F0E0E3
:10224000808182608C93AEE4B0E0EEE4F0E08081C7
:1022500080648C93A9E5B0E0E9E5F0E080818062DC
:102260008C93CF91DF910895DF93CF9300D0CDB7BA
:10227000DEB78A8319828A81813041F4AEE4B0E00E
:10228000EEE4F0E080818F7B8C930DC08A818230F8
:1022900041F4AEE4B0E0EEE4F0E0808180648C9341
:1022A00002C081E0898389810F900F90CF91DF91E7
:1022B0000895DF93CF93CDB7DEB7E6E4F0E08081F9
:1022C0009181CC01A0E0B0E0BC01CD01CF91DF91C4
:1022D0000895DF93CF93CDB7DEB7A9E5B0E0E9E588
:1022E000F0E0808180628C93CF91DF910895DF933D
:1022F000CF93CDB7DEB7A9E5B0E0E9E5F0E08081A6
:102300008F7D8C93CF91DF910895DF93CF9300D091
:1023100000D0CDB7DEB78A837C836B8319828B8133
:102320009C81009769F08A81882F90E0880F991F1F
:10233000FC01E250FF4F8B819C819183808302C01E
:1023400081E0898389810F900F900F900F90CF913A
:10235000DF910895DF93CF93CDB7DEB7A3E5B0E06B
:10236000E3E5F0E0808180648C93A3E5B0E0E3E5F1
:10237000F0E0808188608C93A3E5B0E0E3E5F0E0D5
:1023800080818F7E8C93A3E5B0E0E3E5F0E080816F
:1023900080628C93A3E5B0E0E3E5F0E08081887F84
:1023A0008C93A3E5B0E0E3E5F0E0808182608C935C
:1023B000CF91DF910895DF93CF930F92CDB7DEB722
:1023C0008983ECE5F0E0898180830F90CF91DF91E4
:1023D0000895DF93CF930F92CDB7DEB71982AAE2AB
:1023E000B0E0EAE2F0E0808188608C93AAE2B0E09D
:1023F000EAE2F0E0808180618C9389818F7B898320
:1024000089818F7D898389818F7E89838981877F77
:1024100089838981846089838981826089838981B4
:1024200080688983E0E4F0E089818083E9E2F0E07C
:1024300087E680830F90CF91DF910895DF93CF934C
:102440000F92CDB7DEB78983EBE2F0E08081829511
:1024500086958770882F90E0817090700097A1F327
:10246000ECE2F0E0898180830F90CF91DF910895B5
:10247000DF93CF93CDB7DEB7EBE2F0E08081882326
:10248000DCF7ECE2F0E08081CF91DF910895DF93FB
:10249000CF9300D000D0CDB7DEB79C838B831A8258
:1024A0008B819C810097E1F019820EC08981282FD1
:1024B00030E08B819C81FC01E20FF31F80810E9440
:1024C0001E1289818F5F89838981282F30E08B815B
:1024D0009C81FC01E20FF31F8081882339F702C041
:1024E00082E08A838A810F900F900F900F90CF9196
:1024F000DF9108950F931F93DF93CF9300D000D007
:102500000F92CDB7DEB79C838B836D831A828B814C
:102510009C810097B1F019820FC08981282F30E08B
:102520008B819C818C01020F131F0E943812F801CD
:10253000808389818F5F898399818D81981768F362
:1025400002C082E08A838A810F900F900F900F90D3
:102550000F90CF91DF911F910F910895DF93CF934B
:102560000F92CDB7DEB70E945C100E94E9110E9465
:10257000A3050E949F141982FFCFDF93CF93CDB79D
:10258000DEB760970FB6F894DEBF0FBECDBF87E011
:102590000E94E2050E94CE0F888B88899AE0692FFD
:1025A0000E94A9198F878F85282F30E08FEF90E048
:1025B00002C0959587952A95E2F7982F82E0692FBA
:1025C0000E94D10B80E090E0A8ECB2E48B879C875E
:1025D000AD87BE876B857C858D859E8520E030E04C
:1025E0004AE755E40E941F02DC01CB018F839887E4
:1025F000A987BA876F81788589859A8520E030E040
:1026000040E85FE30E94790388232CF481E090E0A6
:102610009E838D833FC06F81788589859A8520E070
:102620003FEF4FE757E40E94190318164CF56B85EE
:102630007C858D859E8520E030E040E251E40E945B
:102640001F02DC01CB01BC01CD010E944900DC016D
:10265000CB019E838D830FC080E991E09C838B83A7
:102660008B819C810197F1F79C838B838D819E8167
:1026700001979E838D838D819E81009769F714C099
:102680006F81788589859A850E944900DC01CB019C
:102690009E838D838D819E819A83898389819A818E
:1026A0000197F1F79A83898360960FB6F894DEBF9D
:1026B0000FBECDBFCF91DF910895DF93CF93CDB7FC
:1026C000DEB70E94811080E797E10E94C610CF918B
:1026D000DF910895DF93CF93CDB7DEB70E948110CD
:1026E00088EE93E00E94C610CF91DF910895DF93AA
:1026F000CF93CDB7DEB762970FB6F894DEBF0FBEAB
:10270000CDBF1F86188A198A1A8A82C082E065E0C6
:1027100041E00E94DC0980E090E0A0E2B1E48B8718
:102720009C87AD87BE876B857C858D859E8520E0E7
:1027300030E04AE755E40E941F02DC01CB018F83A1
:102740009887A987BA876F81788589859A8520E0DF
:1027500030E040E85FE30E94790388232CF481E0B5
:1027600090E09E838D833FC06F81788589859A85AF
:1027700020E03FEF4FE757E40E94190318164CF58D
:102780006B857C858D859E8520E030E040E251E4BC
:102790000E941F02DC01CB01BC01CD010E94490057
:1027A000DC01CB019E838D830FC080E991E09C8387
:1027B0008B838B819C810197F1F79C838B838D8127
:1027C0009E8101979E838D838D819E81009769F7FD
:1027D00014C06F81788589859A850E944900DC0143
:1027E000CB019E838D838D819E819A83898389818C
:1027F0009A810197F1F79A8389838F859889A989AE
:10280000BA890196A11DB11D8F87988BA98BBA8BB0
:102810008F859889A989BA8980322EE4920720E0B1
:10282000A20720E0B20708F471CF6BCFDF93CF93FC
:10283000CDB7DEB7CF91DF910895DF93CF93CDB7BA
:10284000DEB7809121018F5F80932101CF91DF91CD
:102850000895DF93CF93CDB7DEB780911C018F5FD2
:1028600080931C0180911C01813091F480E090E004
:102870000E94D8100E94EA10CC01A0E0B0E0809342
:10288000140190931501A0931601B093170115C080
:1028900080911C01823089F40E94EA10CC01A0E0F2
:1028A000B0E08093100190931101A0931201B093B6
:1028B000130180E063E00E94F10CCF91DF91089555
:1028C000AF92BF92CF92DF92EF92FF920F931F933E
:1028D000DF93CF93CDB7DEB70E94AA110E940E07F7
:1028E00080E00E94E205CC01A0E0B0E000D000D082
:1028F000EDB7FEB7319680839183A283B38360E006
:1029000070E080E090E02FEF30E040E050E0EE2417
:10291000FF2487010F2EFAEFAF2EF0E0BF2EF0E07C
:10292000CF2EF0E0DF2EF02D0E94EB0F0F900F90D6
:102930000F900F90DC01CB010E94DB11D1CF0F93E0
:102940001F93DF93CF93CDB7DEB7C356D0400FB6FA
:10295000F894DEBF0FBECDBF0E940E07FE01E25B02
:10296000FF4F81E08083FE01E25BFF4F82E08183C5
:10297000FE01E25BFF4F83E08283FE01E25BFF4FDB
:1029800084E08383FE01EE5AFF4F84E08083FE01E2
:10299000EE5AFF4F83E08183FE01EE5AFF4F82E043
:1029A0008283FE01EE5AFF4F81E08383FE01EA5AE3
:1029B000FF4F81E08083FE01EA5AFF4F82E081836E
:1029C000FE01EA5AFF4F83E08283FE01EA5AFF4F7D
:1029D00084E08383FE01E65AFF4F84E08083FE019A
:1029E000E65AFF4F83E08183FE01E65AFF4F82E003
:1029F0008283FE01E65AFF4F81E08383FE01E35BA1
:102A0000FF4F81E08083FE01E45BFF4F81E0808324
:102A1000FE01E55BFF4F83E0808383E060E00E947E
:102A2000680880E690E00E94A807FE01ED5BFF4F7A
:102A300080E090E0AAEFB4E480839183A283B38323
:102A40008E01015C1F4FFE01ED5BFF4F60817181C4
:102A50008281938120E030E04AE755E40E941F0222
:102A6000DC01CB01F80180839183A283B383FE0153
:102A7000FF96608171818281938120E030E040E89F
:102A80005FE30E94790388232CF481E090E09EAFFD
:102A90008DAF46C0FE01FF96608171818281938176
:102AA00020E03FEF4FE757E40E941903181664F542
:102AB000FE01ED5BFF4F608171818281938120E097
:102AC00030E040E251E40E941F02DC01CB01BC0176
:102AD000CD010E944900DC01CB019EAF8DAF0FC03C
:102AE00080E991E09CAF8BAF8BAD9CAD0197F1F786
:102AF0009CAF8BAF8DAD9EAD01979EAF8DAF8DAD71
:102B00009EAD009769F76CC3FE01FF9660817181ED
:102B1000828193810E944900DC01CB019EAF8DAF81
:102B20008DAD9EAD9AAF89AF89AD9AAD0197F1F7A2
:102B30009AAF89AF55C3FE01E35BFF4F81E080830D
:102B4000FE01E45BFF4F81E0808381E00E94D806B4
:102B50008BE690E00E94A80780E061E00E94680890
:102B6000FE01E75BFF4F8FEF90E091838083FE01D2
:102B7000E95BFF4F84E090E0918380833DC00E9439
:102B8000560FFE01E75BFF4F882F90E09183808313
:102B9000FE01E75BFF4F808191818F3F910561F1DD
:102BA000FE01E95BFF4F24E030E080819181281B2A
:102BB000390BFE01E75BFF4F4081CE018A5A9F4FE0
:102BC000FC01E20FF31F4083DE01A95BBF4FFE0152
:102BD000E95BFF4F8081918101978D939C93FE016A
:102BE000E75BFF4F80819181AA2797FDA095BA2FBF
:102BF000BC01CD010E94DB07FE01E95BFF4F808134
:102C00009181009709F0BBCFFE01E95BFF4F118274
:102C100010822AC0FE01E95BFF4F20813181CE0185
:102C20008A5A9F4FFC01E20FF31F4081FE01E95BCE
:102C3000FF4F20813181CE01825B9F4FFC01E20F6B
:102C4000F31F8081481721F0FE01E35BFF4F1082E4
:102C5000DE01A95BBF4FFE01E95BFF4F80819181DF
:102C6000019611969C938E93FE01E95BFF4F808144
:102C700091818430910574F281E00E94D80687E743
:102C800090E00E94A80780E061E00E946808FE01D1
:102C9000E75BFF4F8FEF90E091838083FE01E95B5C
:102CA000FF4F84E090E0918380833DC00E94560FE7
:102CB000FE01E75BFF4F882F90E091838083FE0148
:102CC000E75BFF4F808191818F3F910561F1FE01AC
:102CD000E95BFF4F24E030E080819181281B390BB4
:102CE000FE01E75BFF4F4081CE01865A9F4FFC01FA
:102CF000E20FF31F4083DE01A95BBF4FFE01E95BDA
:102D0000FF4F8081918101978D939C93FE01E75B3A
:102D1000FF4F80819181AA2797FDA095BA2FBC0112
:102D2000CD010E94DB07FE01E95BFF4F80819181AD
:102D3000009709F0BBCFFE01E95BFF4F11821082C3
:102D40002AC0FE01E95BFF4F20813181CE01865A06
:102D50009F4FFC01E20FF31F4081FE01E95BFF4F33
:102D600020813181CE018E5A9F4FFC01E20FF31F6B
:102D70008081481721F0FE01E45BFF4F1082DE01E5
:102D8000A95BBF4FFE01E95BFF4F808191810196F6
:102D900011969C938E93FE01E95BFF4F8081918198
:102DA0008430910574F2FE01E35BFF4F808188233C
:102DB00009F481C0FE01E45BFF4F8081882309F4A0
:102DC0007AC081E00E94D80687E890E00E94A807B8
:102DD00080E090E0AAEFB4E48DAB9EABAFABB8AFB0
:102DE0006DA97EA98FA998AD20E030E04AE755E4AF
:102DF0000E941F02DC01CB0189AB9AABABABBCAB31
:102E000069A97AA98BA99CA920E030E040E85FE39A
:102E10000E94790388232CF481E090E098AB8FA77F
:102E20003FC069A97AA98BA99CA920E03FEF4FE791
:102E300057E40E94190318164CF56DA97EA98FA9B5
:102E400098AD20E030E040E251E40E941F02DC0136
:102E5000CB01BC01CD010E944900DC01CB0198AB44
:102E60008FA70FC080E991E09EA78DA78DA59EA595
:102E70000197F1F79EA78DA78FA598A9019798AB09
:102E80008FA78FA598A9009769F7B1C169A97AA9F9
:102E90008BA99CA90E944900DC01CB0198AB8FA7AC
:102EA0008FA598A99CA78BA78BA59CA50197F1F747
:102EB0009CA78BA79CC1A4961FAEA497FE01E35BC1
:102EC000FF4F8081882321F4F1E0A496FFAFA497FF
:102ED000A3961FAEA397FE01E45BFF4F8081813074
:102EE00021F481E0A3968FAFA397A4968FADA4970A
:102EF000A3969FADA3978923882389F081E00E9440
:102F0000D80685E990E00E94A807DE01A55BBF4FC7
:102F1000FE01E55BFF4F808181508C936FC0A296CC
:102F20001FAEA297FE01E35BFF4F8081813021F449
:102F3000E1E0A296EFAFA297A1961FAEA197FE0186
:102F4000E45BFF4F8081882321F4F1E0A196FFAF7D
:102F5000A197A2968FADA297A1969FADA197892325
:102F6000882389F081E00E94D80681EA90E00E94DF
:102F7000A807DE01A55BBF4FFE01E55BFF4F808127
:102F800081508C933BC0A0961FAEA097FE01E35BDF
:102F9000FF4F8081882321F4E1E0A096EFAFA09756
:102FA0006F961FAE6F97FE01E45BFF4F8081882311
:102FB00021F4F1E06F96FFAF6F97A0968FADA097C9
:102FC0006F969FAD6F9789238823C1F081E00E949F
:102FD000D80682EB90E00E94A80780E061E00E94A2
:102FE000680881EA90E00E94A807DE01A55BBF4F58
:102FF000FE01E55BFF4F808181508C93FE01E55B14
:10300000FF4F8081882309F4EBC080E090E0AAEFB5
:10301000B4E48FA398A7A9A7BAA76FA178A589A59B
:103020009AA520E030E04AE755E40E941F02DC0147
:10303000CB018BA39CA3ADA3BEA36BA17CA18DA14F
:103040009EA120E030E040E85FE30E9479038823FE
:103050002CF481E090E09AA389A33FC06BA17CA1EE
:103060008DA19EA120E03FEF4FE757E40E94190396
:1030700018164CF56FA178A589A59AA520E030E037
:1030800040E251E40E941F02DC01CB01BC01CD01F2
:103090000E944900DC01CB019AA389A30FC080E9FB
:1030A00091E098A38F8F8F8D98A10197F1F798A346
:1030B0008F8F89A19AA101979AA389A389A19AA127
:1030C000009769F714C06BA17CA18DA19EA10E94FD
:1030D0004900DC01CB019AA389A389A19AA19E8F03
:1030E0008D8F8D8D9E8D0197F1F79E8F8D8F81E055
:1030F0000E94D8068DEB90E00E94A80780E090E047
:10310000AAEFB4E4898F9A8FAB8FBC8F698D7A8DCB
:103110008B8D9C8D20E030E04AE755E40E941F0231
:10312000DC01CB018D8B9E8BAF8BB88F6D897E8937
:103130008F89988D20E030E040E85FE30E947903BA
:1031400088232CF481E090E09C8B8B8B3FC06D89B1
:103150007E898F89988D20E03FEF4FE757E40E94EA
:10316000190318164CF5698D7A8D8B8D9C8D20E096
:1031700030E040E251E40E941F02DC01CB01BC01BF
:10318000CD010E944900DC01CB019C8B8B8B0FC0D1
:1031900080E991E09A8B898B89899A890197F1F767
:1031A0009A8B898B8B899C8901979C8B8B8B8B89C4
:1031B0009C89009769F714C06D897E898F89988DE5
:1031C0000E944900DC01CB019C8B8B8B8B899C89F5
:1031D000988B8F878F8598890197F1F7988B8F87C8
:1031E000FE01E55BFF4F8081882309F0A4CCFE013E
:1031F000E35BFF4F8081882339F0FE01E45BFF4FE2
:103200008081882309F07AC080E090E0AAEFB4E4DE
:103210008B879C87AD87BE876B857C858D859E85DA
:1032200020E030E04AE755E40E941F02DC01CB01B8
:103230008F839887A987BA876F81788589859A85D2
:1032400020E030E040E85FE30E94790388232CF41B
:1032500081E090E09E838D833FC06F817885898572
:103260009A8520E03FEF4FE757E40E9419031816B4
:103270004CF56B857C858D859E8520E030E040E2B5
:1032800051E40E941F02DC01CB01BC01CD010E9470
:103290004900DC01CB019E838D830FC080E991E062
:1032A0009C838B838B819C810197F1F79C838B831B
:1032B0008D819E8101979E838D838D819E81009754
:1032C00069F714C06F81788589859A850E944900C5
:1032D000DC01CB019E838D838D819E819A838983BE
:1032E00089819A810197F1F79A83898381E00E940D
:1032F000D80689EC90E00E94A807FFCFCD59DF4F98
:103300000FB6F894DEBF0FBECDBFCF91DF911F91F6
:103310000F910895629FD001739FF001829FE00D8D
:10332000F11D649FE00DF11D929FF00D839FF00D44
:10333000749FF00D659FF00D9927729FB00DE11DF0
:10334000F91F639FB00DE11DF91FBD01CF011124CD
:103350000895991B79E004C0991F961708F0961BF1
:10336000881F7A95C9F78095089597FB092E052641
:103370000ED057FD04D014D00AD0001C38F450955C
:103380004095309521953F4F4F4F5F4F0895F6F789
:1033900090958095709561957F4F8F4F9F4F0895C1
:1033A000A1E21A2EAA1BBB1BFD010DC0AA1FBB1F49
:1033B000EE1FFF1FA217B307E407F50720F0A21BBB
:1033C000B30BE40BF50B661F771F881F991F1A9428
:1033D00069F760957095809590959B01AC01BD0152
:1033E000CF0108952F923F924F925F926F927F92FA
:1033F0008F929F92AF92BF92CF92DF92EF92FF9205
:103400000F931F93CF93DF93CDB7DEB7CA1BDB0BB0
:103410000FB6F894DEBF0FBECDBF09942A88398855
:1034200048885F846E847D848C849B84AA84B9845C
:10343000C884DF80EE80FD800C811B81AA81B98168
:10344000CE0FD11D0FB6F894DEBF0FBECDBFED017C
:063450000895F894FFCF7F
:1034560057656C636F6D652E2E2E00456E74657212
:10346600204944203A2000456E74657220506173ED
:1034760073776F72643A0057656C636F6D652045AC
:10348600736C616D00496E76616C696420496420D5
:1034960000496E76616C69642050617373776F7250
:1034A6006400496E76616C696420496400547279DF
:1034B60020416761696E2E2E00496E76616C6964E3
:1034C600204C6F67696E20000000000000000000BD
:1034D6000102030405060708090A0B0C0D0E0F105E
:0834E6000405060702030405BA
:00000001FF
